{
  "_format": "hh-sol-artifact-1",
  "contractName": "StakingETH",
  "sourceName": "contracts/StakingETH.sol",
  "abi": [
    {
      "inputs": [],
      "name": "ReentrancyGuardReentrantCall",
      "type": "error"
    },
    {
      "inputs": [],
      "name": "DaysInYears",
      "outputs": [
        {
          "internalType": "uint256",
          "name": "",
          "type": "uint256"
        }
      ],
      "stateMutability": "view",
      "type": "function"
    },
    {
      "inputs": [],
      "name": "Rate",
      "outputs": [
        {
          "internalType": "uint256",
          "name": "",
          "type": "uint256"
        }
      ],
      "stateMutability": "view",
      "type": "function"
    },
    {
      "inputs": [
        {
          "internalType": "address",
          "name": "_staker",
          "type": "address"
        }
      ],
      "name": "calculateRewards",
      "outputs": [
        {
          "internalType": "uint256",
          "name": "",
          "type": "uint256"
        }
      ],
      "stateMutability": "view",
      "type": "function"
    },
    {
      "inputs": [],
      "name": "contractBalance",
      "outputs": [
        {
          "internalType": "uint256",
          "name": "",
          "type": "uint256"
        }
      ],
      "stateMutability": "view",
      "type": "function"
    },
    {
      "inputs": [],
      "name": "maxDuration",
      "outputs": [
        {
          "internalType": "uint256",
          "name": "",
          "type": "uint256"
        }
      ],
      "stateMutability": "view",
      "type": "function"
    },
    {
      "inputs": [
        {
          "internalType": "string",
          "name": "_name",
          "type": "string"
        }
      ],
      "name": "stakeEther",
      "outputs": [],
      "stateMutability": "payable",
      "type": "function"
    },
    {
      "inputs": [
        {
          "internalType": "address",
          "name": "",
          "type": "address"
        }
      ],
      "name": "stakers",
      "outputs": [
        {
          "internalType": "string",
          "name": "name",
          "type": "string"
        },
        {
          "internalType": "uint256",
          "name": "accountBalance",
          "type": "uint256"
        },
        {
          "internalType": "uint256",
          "name": "stakeTime",
          "type": "uint256"
        },
        {
          "internalType": "bool",
          "name": "isCreated",
          "type": "bool"
        }
      ],
      "stateMutability": "view",
      "type": "function"
    },
    {
      "inputs": [],
      "name": "withdrawRewards",
      "outputs": [],
      "stateMutability": "nonpayable",
      "type": "function"
    }
  ],
  "bytecode": "0x6080604052348015600f57600080fd5b506001600081905550610fcd806100276000396000f3fe60806040526004361061007b5760003560e01c80637b4f54251161004e5780637b4f54251461012f5780638b7afe2e1461015a5780639168ae7214610185578063c7b8981c146101c55761007b565b80631b8e94a1146100805780631fbb19bb146100ab57806364ab8675146100c75780636db5c8fd14610104575b600080fd5b34801561008c57600080fd5b506100956101dc565b6040516100a291906106a1565b60405180910390f35b6100c560048036038101906100c09190610816565b6101e1565b005b3480156100d357600080fd5b506100ee60048036038101906100e991906108bd565b610344565b6040516100fb91906106a1565b60405180910390f35b34801561011057600080fd5b50610119610445565b60405161012691906106a1565b60405180910390f35b34801561013b57600080fd5b5061014461044a565b60405161015191906106a1565b60405180910390f35b34801561016657600080fd5b5061016f610450565b60405161017c91906106a1565b60405180910390f35b34801561019157600080fd5b506101ac60048036038101906101a791906108bd565b610458565b6040516101bc9493929190610984565b60405180910390f35b3480156101d157600080fd5b506101da61051d565b005b600a81565b600073ffffffffffffffffffffffffffffffffffffffff163373ffffffffffffffffffffffffffffffffffffffff1603610250576040517f08c379a000000000000000000000000000000000000000000000000000000000815260040161024790610a1c565b60405180910390fd5b60003411610293576040517f08c379a000000000000000000000000000000000000000000000000000000000815260040161028a90610a88565b60405180910390fd5b6000600160003373ffffffffffffffffffffffffffffffffffffffff1673ffffffffffffffffffffffffffffffffffffffff16815260200190815260200160002090508060030160009054906101000a900460ff1661031c57818160000190816102fd9190610cb4565b5060018160030160006101000a81548160ff0219169083151502179055505b348160010160008282546103309190610db5565b925050819055504281600201819055505050565b600080600160008473ffffffffffffffffffffffffffffffffffffffff1673ffffffffffffffffffffffffffffffffffffffff16815260200190815260200160002090508060030160009054906101000a900460ff166103d9576040517f08c379a00000000000000000000000000000000000000000000000000000000081526004016103d090610e35565b60405180910390fd5b60008160020154426103eb9190610e55565b9050600082600101549050600060646201518061016d61040b9190610e89565b6104159190610e89565b600a83856104239190610e89565b61042d9190610e89565b6104379190610efa565b905080945050505050919050565b603c81565b61016d81565b600047905090565b600160205280600052604060002060009150905080600001805461047b90610ad7565b80601f01602080910402602001604051908101604052809291908181526020018280546104a790610ad7565b80156104f45780601f106104c9576101008083540402835291602001916104f4565b820191906000526020600020905b8154815290600101906020018083116104d757829003601f168201915b5050505050908060010154908060020154908060030160009054906101000a900460ff16905084565b610525610638565b6000600160003373ffffffffffffffffffffffffffffffffffffffff1673ffffffffffffffffffffffffffffffffffffffff168152602001908152602001600020905060008160010154116105af576040517f08c379a00000000000000000000000000000000000000000000000000000000081526004016105a690610f77565b60405180910390fd5b60006105ba33610344565b905060008183600101546105ce9190610db5565b905060008360010181905550600083600201819055503373ffffffffffffffffffffffffffffffffffffffff166108fc829081150290604051600060405180830381858888f1935050505015801561062a573d6000803e3d6000fd5b5050505061063661067e565b565b600260005403610674576040517f3ee5aeb500000000000000000000000000000000000000000000000000000000815260040160405180910390fd5b6002600081905550565b6001600081905550565b6000819050919050565b61069b81610688565b82525050565b60006020820190506106b66000830184610692565b92915050565b6000604051905090565b600080fd5b600080fd5b600080fd5b600080fd5b6000601f19601f8301169050919050565b7f4e487b7100000000000000000000000000000000000000000000000000000000600052604160045260246000fd5b610723826106da565b810181811067ffffffffffffffff82111715610742576107416106eb565b5b80604052505050565b60006107556106bc565b9050610761828261071a565b919050565b600067ffffffffffffffff821115610781576107806106eb565b5b61078a826106da565b9050602081019050919050565b82818337600083830152505050565b60006107b96107b484610766565b61074b565b9050828152602081018484840111156107d5576107d46106d5565b5b6107e0848285610797565b509392505050565b600082601f8301126107fd576107fc6106d0565b5b813561080d8482602086016107a6565b91505092915050565b60006020828403121561082c5761082b6106c6565b5b600082013567ffffffffffffffff81111561084a576108496106cb565b5b610856848285016107e8565b91505092915050565b600073ffffffffffffffffffffffffffffffffffffffff82169050919050565b600061088a8261085f565b9050919050565b61089a8161087f565b81146108a557600080fd5b50565b6000813590506108b781610891565b92915050565b6000602082840312156108d3576108d26106c6565b5b60006108e1848285016108a8565b91505092915050565b600081519050919050565b600082825260208201905092915050565b60005b83811015610924578082015181840152602081019050610909565b60008484015250505050565b600061093b826108ea565b61094581856108f5565b9350610955818560208601610906565b61095e816106da565b840191505092915050565b60008115159050919050565b61097e81610969565b82525050565b6000608082019050818103600083015261099e8187610930565b90506109ad6020830186610692565b6109ba6040830185610692565b6109c76060830184610975565b95945050505050565b7f41646472657373207a65726f2064657465637465640000000000000000000000600082015250565b6000610a066015836108f5565b9150610a11826109d0565b602082019050919050565b60006020820190508181036000830152610a35816109f9565b9050919050565b7f43616e6e6f74207374616b652030206574686572000000000000000000000000600082015250565b6000610a726014836108f5565b9150610a7d82610a3c565b602082019050919050565b60006020820190508181036000830152610aa181610a65565b9050919050565b7f4e487b7100000000000000000000000000000000000000000000000000000000600052602260045260246000fd5b60006002820490506001821680610aef57607f821691505b602082108103610b0257610b01610aa8565b5b50919050565b60008190508160005260206000209050919050565b60006020601f8301049050919050565b600082821b905092915050565b600060088302610b6a7fffffffffffffffffffffffffffffffffffffffffffffffffffffffffffffffff82610b2d565b610b748683610b2d565b95508019841693508086168417925050509392505050565b6000819050919050565b6000610bb1610bac610ba784610688565b610b8c565b610688565b9050919050565b6000819050919050565b610bcb83610b96565b610bdf610bd782610bb8565b848454610b3a565b825550505050565b600090565b610bf4610be7565b610bff818484610bc2565b505050565b5b81811015610c2357610c18600082610bec565b600181019050610c05565b5050565b601f821115610c6857610c3981610b08565b610c4284610b1d565b81016020851015610c51578190505b610c65610c5d85610b1d565b830182610c04565b50505b505050565b600082821c905092915050565b6000610c8b60001984600802610c6d565b1980831691505092915050565b6000610ca48383610c7a565b9150826002028217905092915050565b610cbd826108ea565b67ffffffffffffffff811115610cd657610cd56106eb565b5b610ce08254610ad7565b610ceb828285610c27565b600060209050601f831160018114610d1e5760008415610d0c578287015190505b610d168582610c98565b865550610d7e565b601f198416610d2c86610b08565b60005b82811015610d5457848901518255600182019150602085019450602081019050610d2f565b86831015610d715784890151610d6d601f891682610c7a565b8355505b6001600288020188555050505b505050505050565b7f4e487b7100000000000000000000000000000000000000000000000000000000600052601160045260246000fd5b6000610dc082610688565b9150610dcb83610688565b9250828201905080821115610de357610de2610d86565b5b92915050565b7f5374616b657220646f6573206e6f742065786973740000000000000000000000600082015250565b6000610e1f6015836108f5565b9150610e2a82610de9565b602082019050919050565b60006020820190508181036000830152610e4e81610e12565b9050919050565b6000610e6082610688565b9150610e6b83610688565b9250828203905081811115610e8357610e82610d86565b5b92915050565b6000610e9482610688565b9150610e9f83610688565b9250828202610ead81610688565b91508282048414831517610ec457610ec3610d86565b5b5092915050565b7f4e487b7100000000000000000000000000000000000000000000000000000000600052601260045260246000fd5b6000610f0582610688565b9150610f1083610688565b925082610f2057610f1f610ecb565b5b828204905092915050565b7f4e6f204574686572207374616b65640000000000000000000000000000000000600082015250565b6000610f61600f836108f5565b9150610f6c82610f2b565b602082019050919050565b60006020820190508181036000830152610f9081610f54565b905091905056fea264697066735822122074ecda1ffea081fd02eaec58326749ee124c2acf82171869983cdc79e92a2cbd64736f6c634300081b0033",
  "linkReferences": {},
  "deployedLinkReferences": {}
}